{
  "_format": "hh-sol-artifact-1",
  "contractName": "Realty",
  "sourceName": "contracts/Realty.sol",
  "abi": [
    {
      "inputs": [
        {
          "internalType": "uint256",
          "name": "",
          "type": "uint256"
        }
      ],
      "name": "AllProperties",
      "outputs": [
        {
          "internalType": "uint256",
          "name": "",
          "type": "uint256"
        }
      ],
      "stateMutability": "view",
      "type": "function"
    },
    {
      "inputs": [
        {
          "internalType": "uint256",
          "name": "propertyID",
          "type": "uint256"
        }
      ],
      "name": "List_Property",
      "outputs": [],
      "stateMutability": "nonpayable",
      "type": "function"
    },
    {
      "inputs": [],
      "name": "allListedProperties",
      "outputs": [
        {
          "internalType": "string[]",
          "name": "",
          "type": "string[]"
        }
      ],
      "stateMutability": "view",
      "type": "function"
    },
    {
      "inputs": [],
      "name": "allProperties",
      "outputs": [
        {
          "internalType": "string[]",
          "name": "",
          "type": "string[]"
        }
      ],
      "stateMutability": "view",
      "type": "function"
    },
    {
      "inputs": [
        {
          "internalType": "address",
          "name": "_owner",
          "type": "address"
        }
      ],
      "name": "allPropertiesOwnedBy",
      "outputs": [
        {
          "internalType": "string[]",
          "name": "",
          "type": "string[]"
        }
      ],
      "stateMutability": "view",
      "type": "function"
    },
    {
      "inputs": [
        {
          "internalType": "uint256",
          "name": "",
          "type": "uint256"
        },
        {
          "internalType": "uint256",
          "name": "",
          "type": "uint256"
        }
      ],
      "name": "allowners",
      "outputs": [
        {
          "internalType": "address",
          "name": "",
          "type": "address"
        }
      ],
      "stateMutability": "view",
      "type": "function"
    },
    {
      "inputs": [
        {
          "internalType": "uint256",
          "name": "propertyID",
          "type": "uint256"
        },
        {
          "internalType": "uint256",
          "name": "price",
          "type": "uint256"
        }
      ],
      "name": "buyProperty",
      "outputs": [],
      "stateMutability": "payable",
      "type": "function"
    },
    {
      "inputs": [
        {
          "internalType": "uint256",
          "name": "",
          "type": "uint256"
        }
      ],
      "name": "isListed",
      "outputs": [
        {
          "internalType": "bool",
          "name": "",
          "type": "bool"
        }
      ],
      "stateMutability": "view",
      "type": "function"
    },
    {
      "inputs": [
        {
          "internalType": "uint256",
          "name": "",
          "type": "uint256"
        }
      ],
      "name": "isListedArray",
      "outputs": [
        {
          "internalType": "uint256",
          "name": "",
          "type": "uint256"
        }
      ],
      "stateMutability": "view",
      "type": "function"
    },
    {
      "inputs": [
        {
          "internalType": "uint256",
          "name": "",
          "type": "uint256"
        }
      ],
      "name": "isMinted",
      "outputs": [
        {
          "internalType": "bool",
          "name": "",
          "type": "bool"
        }
      ],
      "stateMutability": "view",
      "type": "function"
    },
    {
      "inputs": [
        {
          "internalType": "string",
          "name": "tokenURI",
          "type": "string"
        },
        {
          "internalType": "uint256",
          "name": "propertyID",
          "type": "uint256"
        }
      ],
      "name": "mintNFT",
      "outputs": [
        {
          "internalType": "uint256",
          "name": "",
          "type": "uint256"
        }
      ],
      "stateMutability": "nonpayable",
      "type": "function"
    },
    {
      "inputs": [
        {
          "internalType": "address",
          "name": "_owner",
          "type": "address"
        }
      ],
      "name": "mintedPropertiesByOwner",
      "outputs": [
        {
          "internalType": "string[]",
          "name": "",
          "type": "string[]"
        }
      ],
      "stateMutability": "view",
      "type": "function"
    },
    {
      "inputs": [
        {
          "internalType": "address",
          "name": "",
          "type": "address"
        },
        {
          "internalType": "uint256",
          "name": "",
          "type": "uint256"
        }
      ],
      "name": "ownedProperties",
      "outputs": [
        {
          "internalType": "uint256",
          "name": "",
          "type": "uint256"
        }
      ],
      "stateMutability": "view",
      "type": "function"
    },
    {
      "inputs": [
        {
          "internalType": "uint256",
          "name": "",
          "type": "uint256"
        }
      ],
      "name": "ownerof",
      "outputs": [
        {
          "internalType": "address",
          "name": "",
          "type": "address"
        }
      ],
      "stateMutability": "view",
      "type": "function"
    },
    {
      "inputs": [
        {
          "internalType": "uint256",
          "name": "propertyID",
          "type": "uint256"
        }
      ],
      "name": "pastOwners",
      "outputs": [
        {
          "internalType": "address[]",
          "name": "",
          "type": "address[]"
        }
      ],
      "stateMutability": "view",
      "type": "function"
    },
    {
      "inputs": [
        {
          "internalType": "address",
          "name": "owner",
          "type": "address"
        },
        {
          "internalType": "uint256",
          "name": "propertyId",
          "type": "uint256"
        }
      ],
      "name": "removeProperty",
      "outputs": [],
      "stateMutability": "nonpayable",
      "type": "function"
    },
    {
      "inputs": [
        {
          "internalType": "address",
          "name": "",
          "type": "address"
        }
      ],
      "name": "safemint",
      "outputs": [
        {
          "internalType": "uint256",
          "name": "",
          "type": "uint256"
        }
      ],
      "stateMutability": "view",
      "type": "function"
    },
    {
      "inputs": [
        {
          "internalType": "uint256",
          "name": "",
          "type": "uint256"
        }
      ],
      "name": "setTokenURI",
      "outputs": [
        {
          "internalType": "string",
          "name": "",
          "type": "string"
        }
      ],
      "stateMutability": "view",
      "type": "function"
    },
    {
      "inputs": [],
      "name": "tokenIdCounter",
      "outputs": [
        {
          "internalType": "uint256",
          "name": "",
          "type": "uint256"
        }
      ],
      "stateMutability": "view",
      "type": "function"
    },
    {
      "inputs": [
        {
          "internalType": "uint256",
          "name": "",
          "type": "uint256"
        }
      ],
      "name": "tokenURIs",
      "outputs": [
        {
          "internalType": "string",
          "name": "",
          "type": "string"
        }
      ],
      "stateMutability": "view",
      "type": "function"
    }
  ],
  "bytecode": "0x608060405260015f55348015610013575f80fd5b5061154a806100215f395ff3fe60806040526004361061011b575f3560e01c806398bdf6f51161009d578063bf1b78b411610062578063bf1b78b41461034e578063bff261261461036d578063c2c802421461038c578063e81e9ab9146103b8578063fcce4883146103d7575f80fd5b806398bdf6f5146102c05780639a925959146102d4578063a772c927146102e8578063b6040c10146102fb578063bdebb5251461031a575f80fd5b80635afa3a72116100e35780635afa3a72146101fe57806368897cf21461022b5780636c8b703f1461024a5780636ed452fd146102765780637fc9a915146102a1575f80fd5b80630680f4ec1461011f578063248441fa1461015457806333c41a9014610168578063444ec938146101a657806359360e59146101c7575b5f80fd5b34801561012a575f80fd5b5061013e610139366004611116565b610405565b60405161014b9190611179565b60405180910390f35b34801561015f575f80fd5b5061013e6105ad565b348015610173575f80fd5b506101966101823660046111d9565b60056020525f908152604090205460ff1681565b604051901515815260200161014b565b3480156101b1575f80fd5b506101c56101c03660046111d9565b6106f7565b005b3480156101d2575f80fd5b506101e66101e13660046111f0565b61079d565b6040516001600160a01b03909116815260200161014b565b348015610209575f80fd5b5061021d610218366004611224565b6107d1565b60405190815260200161014b565b348015610236575f80fd5b5061013e610245366004611116565b610931565b348015610255575f80fd5b506102696102643660046111d9565b610b5c565b60405161014b91906112d3565b348015610281575f80fd5b5061021d610290366004611116565b60066020525f908152604090205481565b3480156102ac575f80fd5b5061021d6102bb3660046111d9565b610bf3565b3480156102cb575f80fd5b5061021d5f5481565b3480156102df575f80fd5b5061013e610c12565b6101c56102f63660046111f0565b610d55565b348015610306575f80fd5b5061021d6103153660046112e5565b610f76565b348015610325575f80fd5b506101e66103343660046111d9565b60086020525f90815260409020546001600160a01b031681565b348015610359575f80fd5b5061021d6103683660046111d9565b610fa1565b348015610378575f80fd5b506102696103873660046111d9565b610fb0565b348015610397575f80fd5b506103ab6103a63660046111d9565b610fc8565b60405161014b919061130d565b3480156103c3575f80fd5b506101c56103d23660046112e5565b611031565b3480156103e2575f80fd5b506101966103f13660046111d9565b60026020525f908152604090205460ff1681565b6001600160a01b0381165f90815260036020908152604080832080548251818502810185019093528083526060949383018282801561046157602002820191905f5260205f20905b81548152602001906001019080831161044d575b505050505090505f815167ffffffffffffffff81111561048357610483611210565b6040519080825280602002602001820160405280156104b657816020015b60608152602001906001900390816104a15790505b5090505f5b82518110156105a55760015f8483815181106104d9576104d9611359565b602002602001015181526020019081526020015f2080546104f99061136d565b80601f01602080910402602001604051908101604052809291908181526020018280546105259061136d565b80156105705780601f1061054757610100808354040283529160200191610570565b820191905f5260205f20905b81548152906001019060200180831161055357829003601f168201915b505050505082828151811061058757610587611359565b6020026020010181905250808061059d906113b9565b9150506104bb565b509392505050565b600a546060905f8167ffffffffffffffff8111156105cd576105cd611210565b60405190808252806020026020018201604052801561060057816020015b60608152602001906001900390816105eb5790505b5090505f5b828110156106f05760015f600a838154811061062357610623611359565b905f5260205f20015481526020019081526020015f2080546106449061136d565b80601f01602080910402602001604051908101604052809291908181526020018280546106709061136d565b80156106bb5780601f10610692576101008083540402835291602001916106bb565b820191905f5260205f20905b81548152906001019060200180831161069e57829003601f168201915b50505050508282815181106106d2576106d2611359565b602002602001018190525080806106e8906113b9565b915050610605565b5092915050565b5f818152600860205260409020546001600160a01b031633146107515760405162461bcd60e51b815260206004820152600d60248201526c2737ba103a34329037bbb732b960991b60448201526064015b60405180910390fd5b6009805460018181019092557f6e1540171b6c0c960b71a7020d9f60077f6af931a8bbf590da0223dacf75c7af018290555f91825260026020526040909120805460ff19169091179055565b6004602052815f5260405f2081815481106107b6575f80fd5b5f918252602090912001546001600160a01b03169150829050565b5f8181526005602052604081205460ff161561082f5760405162461bcd60e51b815260206004820152601760248201527f50524f504552545920414c5245414459204d494e5445440000000000000000006044820152606401610748565b5f5461083c9060016113d1565b5f908155338152600660209081526040808320859055848352600790915290206108668482611431565b505f82815260016020526040902061087e8482611431565b50505f818152600560209081526040808320805460ff19166001908117909155338085526003845282852080548084018255908652848620018690558585526008845282852080546001600160a01b03199081168317909155600485529285208054808401825590865293852090930180549092169092179055600a805491820181559091527fc65a7bb8d6351c1cf70c95a316cc6a92839c986682d98bc35f958f4883f9d2a801819055805b92915050565b6001600160a01b0381165f90815260036020908152604080832080548251818502810185019093528083526060949383018282801561098d57602002820191905f5260205f20905b815481526020019060010190808311610979575b505050505090505f815167ffffffffffffffff8111156109af576109af611210565b6040519080825280602002602001820160405280156109e257816020015b60608152602001906001900390816109cd5790505b5090505f805b8351811015610b525760055f858381518110610a0657610a06611359565b60209081029190910181015182528101919091526040015f205460ff168015610a5e575060025f858381518110610a3f57610a3f611359565b60209081029190910181015182528101919091526040015f205460ff16155b15610b405760015f858381518110610a7857610a78611359565b602002602001015181526020019081526020015f208054610a989061136d565b80601f0160208091040260200160405190810160405280929190818152602001828054610ac49061136d565b8015610b0f5780601f10610ae657610100808354040283529160200191610b0f565b820191905f5260205f20905b815481529060010190602001808311610af257829003601f168201915b5050505050838381518110610b2657610b26611359565b60200260200101819052508180610b3c906113b9565b9250505b80610b4a816113b9565b9150506109e8565b5090949350505050565b60016020525f908152604090208054610b749061136d565b80601f0160208091040260200160405190810160405280929190818152602001828054610ba09061136d565b8015610beb5780601f10610bc257610100808354040283529160200191610beb565b820191905f5260205f20905b815481529060010190602001808311610bce57829003601f168201915b505050505081565b600a8181548110610c02575f80fd5b5f91825260209091200154905081565b6009546060905f8167ffffffffffffffff811115610c3257610c32611210565b604051908082528060200260200182016040528015610c6557816020015b6060815260200190600190039081610c505790505b5090505f5b828110156106f05760015f60098381548110610c8857610c88611359565b905f5260205f20015481526020019081526020015f208054610ca99061136d565b80601f0160208091040260200160405190810160405280929190818152602001828054610cd59061136d565b8015610d205780601f10610cf757610100808354040283529160200191610d20565b820191905f5260205f20905b815481529060010190602001808311610d0357829003601f168201915b5050505050828281518110610d3757610d37611359565b60200260200101819052508080610d4d906113b9565b915050610c6a565b5f8281526002602052604090205460ff16610da85760405162461bcd60e51b8152602060048201526013602482015272141c9bdc195c9d1e481b9bdd081b1a5cdd1959606a1b6044820152606401610748565b80341015610ded5760405162461bcd60e51b8152602060048201526012602482015271496e73756666696369656e742066756e647360701b6044820152606401610748565b5f82815260086020526040902054336001600160a01b0390911603610e605760405162461bcd60e51b815260206004820152602360248201527f4f776e65722063616e6e6f7420627579207468656972206f776e2070726f706560448201526272747960e81b6064820152608401610748565b5f8281526008602090815260408083205433845260069092528083208590556001600160a01b0390911680835281832083905590519091829184156108fc0291859190818181858888f19350505050158015610ebe573d5f803e3d5ffd5b50336108fc610ecd84346114ed565b6040518115909202915f818181858888f19350505050158015610ef2573d5f803e3d5ffd5b505f8381526008602090815260408083208054336001600160a01b03199182168117909255818552600384528285208054600181810183559187528587200189905588865260048552838620805491820181558652848620018054909116909117905585835260029091529020805460ff19169055610f718184611031565b505050565b6003602052815f5260405f208181548110610f8f575f80fd5b905f5260205f20015f91509150505481565b60098181548110610c02575f80fd5b60076020525f908152604090208054610b749061136d565b5f8181526004602090815260409182902080548351818402810184019094528084526060939283018282801561102557602002820191905f5260205f20905b81546001600160a01b03168152600190910190602001808311611007575b50505050509050919050565b6001600160a01b0382165f908152600360205260408120905b81548110156110f5578282828154811061106657611066611359565b905f5260205f200154036110e35781548290611084906001906114ed565b8154811061109457611094611359565b905f5260205f2001548282815481106110af576110af611359565b905f5260205f200181905550818054806110cb576110cb611500565b600190038181905f5260205f20015f905590556110f5565b806110ed816113b9565b91505061104a565b50505050565b80356001600160a01b0381168114611111575f80fd5b919050565b5f60208284031215611126575f80fd5b61112f826110fb565b9392505050565b5f81518084525f5b8181101561115a5760208185018101518683018201520161113e565b505f602082860101526020601f19601f83011685010191505092915050565b5f602080830181845280855180835260408601915060408160051b87010192508387015f5b828110156111cc57603f198886030184526111ba858351611136565b9450928501929085019060010161119e565b5092979650505050505050565b5f602082840312156111e9575f80fd5b5035919050565b5f8060408385031215611201575f80fd5b50508035926020909101359150565b634e487b7160e01b5f52604160045260245ffd5b5f8060408385031215611235575f80fd5b823567ffffffffffffffff8082111561124c575f80fd5b818501915085601f83011261125f575f80fd5b81358181111561127157611271611210565b604051601f8201601f19908116603f0116810190838211818310171561129957611299611210565b816040528281528860208487010111156112b1575f80fd5b826020860160208301375f602093820184015298969091013596505050505050565b602081525f61112f6020830184611136565b5f80604083850312156112f6575f80fd5b6112ff836110fb565b946020939093013593505050565b602080825282518282018190525f9190848201906040850190845b8181101561134d5783516001600160a01b031683529284019291840191600101611328565b50909695505050505050565b634e487b7160e01b5f52603260045260245ffd5b600181811c9082168061138157607f821691505b60208210810361139f57634e487b7160e01b5f52602260045260245ffd5b50919050565b634e487b7160e01b5f52601160045260245ffd5b5f600182016113ca576113ca6113a5565b5060010190565b8082018082111561092b5761092b6113a5565b601f821115610f71575f81815260208120601f850160051c8101602086101561140a5750805b601f850160051c820191505b8181101561142957828155600101611416565b505050505050565b815167ffffffffffffffff81111561144b5761144b611210565b61145f81611459845461136d565b846113e4565b602080601f831160018114611492575f841561147b5750858301515b5f19600386901b1c1916600185901b178555611429565b5f85815260208120601f198616915b828110156114c0578886015182559484019460019091019084016114a1565b50858210156114dd57878501515f19600388901b60f8161c191681555b5050505050600190811b01905550565b8181038181111561092b5761092b6113a5565b634e487b7160e01b5f52603160045260245ffdfea26469706673582212208dc666cbc7f61d923b62907e53f27dd2aee03ad126cc5e052e14d9d1dc73e26f64736f6c63430008140033",
  "linkReferences": {},
  "deployedLinkReferences": {}
}