{
  "_format": "hh-sol-artifact-1",
  "contractName": "Realty",
  "sourceName": "contracts/Realty.sol",
  "abi": [
    {
      "inputs": [
        {
          "internalType": "uint256",
          "name": "",
          "type": "uint256"
        }
      ],
      "name": "AllProperties",
      "outputs": [
        {
          "internalType": "uint256",
          "name": "",
          "type": "uint256"
        }
      ],
      "stateMutability": "view",
      "type": "function"
    },
    {
      "inputs": [
        {
          "internalType": "uint256",
          "name": "propertyID",
          "type": "uint256"
        }
      ],
      "name": "List_Property",
      "outputs": [],
      "stateMutability": "nonpayable",
      "type": "function"
    },
    {
      "inputs": [],
      "name": "allListedProperties",
      "outputs": [
        {
          "internalType": "string[]",
          "name": "",
          "type": "string[]"
        }
      ],
      "stateMutability": "view",
      "type": "function"
    },
    {
      "inputs": [],
      "name": "allProperties",
      "outputs": [
        {
          "internalType": "string[]",
          "name": "",
          "type": "string[]"
        }
      ],
      "stateMutability": "view",
      "type": "function"
    },
    {
      "inputs": [
        {
          "internalType": "address",
          "name": "_owner",
          "type": "address"
        }
      ],
      "name": "allPropertiesOwnedBy",
      "outputs": [
        {
          "internalType": "string[]",
          "name": "",
          "type": "string[]"
        }
      ],
      "stateMutability": "view",
      "type": "function"
    },
    {
      "inputs": [
        {
          "internalType": "uint256",
          "name": "",
          "type": "uint256"
        },
        {
          "internalType": "uint256",
          "name": "",
          "type": "uint256"
        }
      ],
      "name": "allowners",
      "outputs": [
        {
          "internalType": "address",
          "name": "",
          "type": "address"
        }
      ],
      "stateMutability": "view",
      "type": "function"
    },
    {
      "inputs": [
        {
          "internalType": "uint256",
          "name": "propertyID",
          "type": "uint256"
        },
        {
          "internalType": "uint256",
          "name": "price",
          "type": "uint256"
        }
      ],
      "name": "buyProperty",
      "outputs": [],
      "stateMutability": "payable",
      "type": "function"
    },
    {
      "inputs": [
        {
          "internalType": "uint256",
          "name": "",
          "type": "uint256"
        }
      ],
      "name": "isListed",
      "outputs": [
        {
          "internalType": "bool",
          "name": "",
          "type": "bool"
        }
      ],
      "stateMutability": "view",
      "type": "function"
    },
    {
      "inputs": [
        {
          "internalType": "uint256",
          "name": "",
          "type": "uint256"
        }
      ],
      "name": "isListedArray",
      "outputs": [
        {
          "internalType": "uint256",
          "name": "",
          "type": "uint256"
        }
      ],
      "stateMutability": "view",
      "type": "function"
    },
    {
      "inputs": [
        {
          "internalType": "uint256",
          "name": "",
          "type": "uint256"
        }
      ],
      "name": "isMinted",
      "outputs": [
        {
          "internalType": "bool",
          "name": "",
          "type": "bool"
        }
      ],
      "stateMutability": "view",
      "type": "function"
    },
    {
      "inputs": [
        {
          "internalType": "string",
          "name": "tokenURI",
          "type": "string"
        },
        {
          "internalType": "uint256",
          "name": "propertyID",
          "type": "uint256"
        }
      ],
      "name": "mintNFT",
      "outputs": [
        {
          "internalType": "uint256",
          "name": "",
          "type": "uint256"
        }
      ],
      "stateMutability": "nonpayable",
      "type": "function"
    },
    {
      "inputs": [
        {
          "internalType": "address",
          "name": "_owner",
          "type": "address"
        }
      ],
      "name": "mintedPropertiesByOwner",
      "outputs": [
        {
          "internalType": "string[]",
          "name": "",
          "type": "string[]"
        }
      ],
      "stateMutability": "view",
      "type": "function"
    },
    {
      "inputs": [
        {
          "internalType": "address",
          "name": "",
          "type": "address"
        },
        {
          "internalType": "uint256",
          "name": "",
          "type": "uint256"
        }
      ],
      "name": "ownedProperties",
      "outputs": [
        {
          "internalType": "uint256",
          "name": "",
          "type": "uint256"
        }
      ],
      "stateMutability": "view",
      "type": "function"
    },
    {
      "inputs": [
        {
          "internalType": "uint256",
          "name": "",
          "type": "uint256"
        }
      ],
      "name": "ownerof",
      "outputs": [
        {
          "internalType": "address",
          "name": "",
          "type": "address"
        }
      ],
      "stateMutability": "view",
      "type": "function"
    },
    {
      "inputs": [
        {
          "internalType": "address",
          "name": "owner",
          "type": "address"
        },
        {
          "internalType": "uint256",
          "name": "propertyId",
          "type": "uint256"
        }
      ],
      "name": "removeProperty",
      "outputs": [],
      "stateMutability": "nonpayable",
      "type": "function"
    },
    {
      "inputs": [
        {
          "internalType": "address",
          "name": "",
          "type": "address"
        }
      ],
      "name": "safemint",
      "outputs": [
        {
          "internalType": "uint256",
          "name": "",
          "type": "uint256"
        }
      ],
      "stateMutability": "view",
      "type": "function"
    },
    {
      "inputs": [
        {
          "internalType": "uint256",
          "name": "",
          "type": "uint256"
        }
      ],
      "name": "setTokenURI",
      "outputs": [
        {
          "internalType": "string",
          "name": "",
          "type": "string"
        }
      ],
      "stateMutability": "view",
      "type": "function"
    },
    {
      "inputs": [],
      "name": "tokenIdCounter",
      "outputs": [
        {
          "internalType": "uint256",
          "name": "",
          "type": "uint256"
        }
      ],
      "stateMutability": "view",
      "type": "function"
    },
    {
      "inputs": [
        {
          "internalType": "uint256",
          "name": "",
          "type": "uint256"
        }
      ],
      "name": "tokenURIs",
      "outputs": [
        {
          "internalType": "string",
          "name": "",
          "type": "string"
        }
      ],
      "stateMutability": "view",
      "type": "function"
    }
  ],
  "bytecode": "0x608060405260015f55348015610013575f80fd5b5061149c806100215f395ff3fe608060405260043610610110575f3560e01c80637fc9a9151161009d578063bdebb52511610062578063bdebb5251461030f578063bf1b78b414610343578063bff2612614610362578063e81e9ab914610381578063fcce4883146103a0575f80fd5b80637fc9a9151461029657806398bdf6f5146102b55780639a925959146102c9578063a772c927146102dd578063b6040c10146102f0575f80fd5b806359360e59116100e357806359360e59146101bc5780635afa3a72146101f357806368897cf2146102205780636c8b703f1461023f5780636ed452fd1461026b575f80fd5b80630680f4ec14610114578063248441fa1461014957806333c41a901461015d578063444ec9381461019b575b5f80fd5b34801561011f575f80fd5b5061013361012e366004611095565b6103ce565b60405161014091906110f8565b60405180910390f35b348015610154575f80fd5b50610133610576565b348015610168575f80fd5b5061018b610177366004611158565b60056020525f908152604090205460ff1681565b6040519015158152602001610140565b3480156101a6575f80fd5b506101ba6101b5366004611158565b6106c0565b005b3480156101c7575f80fd5b506101db6101d636600461116f565b610766565b6040516001600160a01b039091168152602001610140565b3480156101fe575f80fd5b5061021261020d3660046111a3565b61079a565b604051908152602001610140565b34801561022b575f80fd5b5061013361023a366004611095565b6108fa565b34801561024a575f80fd5b5061025e610259366004611158565b610b25565b6040516101409190611252565b348015610276575f80fd5b50610212610285366004611095565b60066020525f908152604090205481565b3480156102a1575f80fd5b506102126102b0366004611158565b610bbc565b3480156102c0575f80fd5b506102125f5481565b3480156102d4575f80fd5b50610133610bdb565b6101ba6102eb36600461116f565b610d1e565b3480156102fb575f80fd5b5061021261030a366004611264565b610f5e565b34801561031a575f80fd5b506101db610329366004611158565b60086020525f90815260409020546001600160a01b031681565b34801561034e575f80fd5b5061021261035d366004611158565b610f89565b34801561036d575f80fd5b5061025e61037c366004611158565b610f98565b34801561038c575f80fd5b506101ba61039b366004611264565b610fb0565b3480156103ab575f80fd5b5061018b6103ba366004611158565b60026020525f908152604090205460ff1681565b6001600160a01b0381165f90815260036020908152604080832080548251818502810185019093528083526060949383018282801561042a57602002820191905f5260205f20905b815481526020019060010190808311610416575b505050505090505f815167ffffffffffffffff81111561044c5761044c61118f565b60405190808252806020026020018201604052801561047f57816020015b606081526020019060019003908161046a5790505b5090505f5b825181101561056e5760015f8483815181106104a2576104a261128c565b602002602001015181526020019081526020015f2080546104c2906112a0565b80601f01602080910402602001604051908101604052809291908181526020018280546104ee906112a0565b80156105395780601f1061051057610100808354040283529160200191610539565b820191905f5260205f20905b81548152906001019060200180831161051c57829003601f168201915b50505050508282815181106105505761055061128c565b60200260200101819052508080610566906112ec565b915050610484565b509392505050565b600a546060905f8167ffffffffffffffff8111156105965761059661118f565b6040519080825280602002602001820160405280156105c957816020015b60608152602001906001900390816105b45790505b5090505f5b828110156106b95760015f600a83815481106105ec576105ec61128c565b905f5260205f20015481526020019081526020015f20805461060d906112a0565b80601f0160208091040260200160405190810160405280929190818152602001828054610639906112a0565b80156106845780601f1061065b57610100808354040283529160200191610684565b820191905f5260205f20905b81548152906001019060200180831161066757829003601f168201915b505050505082828151811061069b5761069b61128c565b602002602001018190525080806106b1906112ec565b9150506105ce565b5092915050565b5f818152600860205260409020546001600160a01b0316331461071a5760405162461bcd60e51b815260206004820152600d60248201526c2737ba103a34329037bbb732b960991b60448201526064015b60405180910390fd5b6009805460018181019092557f6e1540171b6c0c960b71a7020d9f60077f6af931a8bbf590da0223dacf75c7af018290555f91825260026020526040909120805460ff19169091179055565b6004602052815f5260405f20818154811061077f575f80fd5b5f918252602090912001546001600160a01b03169150829050565b5f8181526005602052604081205460ff16156107f85760405162461bcd60e51b815260206004820152601760248201527f50524f504552545920414c5245414459204d494e5445440000000000000000006044820152606401610711565b5f54610805906001611304565b5f9081553381526006602090815260408083208590558483526007909152902061082f8482611364565b505f8281526001602052604090206108478482611364565b50505f818152600560209081526040808320805460ff19166001908117909155338085526003845282852080548084018255908652848620018690558585526008845282852080546001600160a01b03199081168317909155600485529285208054808401825590865293852090930180549092169092179055600a805491820181559091527fc65a7bb8d6351c1cf70c95a316cc6a92839c986682d98bc35f958f4883f9d2a801819055805b92915050565b6001600160a01b0381165f90815260036020908152604080832080548251818502810185019093528083526060949383018282801561095657602002820191905f5260205f20905b815481526020019060010190808311610942575b505050505090505f815167ffffffffffffffff8111156109785761097861118f565b6040519080825280602002602001820160405280156109ab57816020015b60608152602001906001900390816109965790505b5090505f805b8351811015610b1b5760055f8583815181106109cf576109cf61128c565b60209081029190910181015182528101919091526040015f205460ff168015610a27575060025f858381518110610a0857610a0861128c565b60209081029190910181015182528101919091526040015f205460ff16155b15610b095760015f858381518110610a4157610a4161128c565b602002602001015181526020019081526020015f208054610a61906112a0565b80601f0160208091040260200160405190810160405280929190818152602001828054610a8d906112a0565b8015610ad85780601f10610aaf57610100808354040283529160200191610ad8565b820191905f5260205f20905b815481529060010190602001808311610abb57829003601f168201915b5050505050838381518110610aef57610aef61128c565b60200260200101819052508180610b05906112ec565b9250505b80610b13816112ec565b9150506109b1565b5090949350505050565b60016020525f908152604090208054610b3d906112a0565b80601f0160208091040260200160405190810160405280929190818152602001828054610b69906112a0565b8015610bb45780601f10610b8b57610100808354040283529160200191610bb4565b820191905f5260205f20905b815481529060010190602001808311610b9757829003601f168201915b505050505081565b600a8181548110610bcb575f80fd5b5f91825260209091200154905081565b6009546060905f8167ffffffffffffffff811115610bfb57610bfb61118f565b604051908082528060200260200182016040528015610c2e57816020015b6060815260200190600190039081610c195790505b5090505f5b828110156106b95760015f60098381548110610c5157610c5161128c565b905f5260205f20015481526020019081526020015f208054610c72906112a0565b80601f0160208091040260200160405190810160405280929190818152602001828054610c9e906112a0565b8015610ce95780601f10610cc057610100808354040283529160200191610ce9565b820191905f5260205f20905b815481529060010190602001808311610ccc57829003601f168201915b5050505050828281518110610d0057610d0061128c565b60200260200101819052508080610d16906112ec565b915050610c33565b5f8281526002602052604090205460ff16610d715760405162461bcd60e51b8152602060048201526013602482015272141c9bdc195c9d1e481b9bdd081b1a5cdd1959606a1b6044820152606401610711565b610d7c606482611420565b341015610dc05760405162461bcd60e51b8152602060048201526012602482015271496e73756666696369656e742066756e647360701b6044820152606401610711565b5f82815260086020526040902054336001600160a01b0390911603610e335760405162461bcd60e51b815260206004820152602360248201527f4f776e65722063616e6e6f7420627579207468656972206f776e2070726f706560448201526272747960e81b6064820152608401610711565b5f8281526008602090815260408083205433845260069092528083208590556001600160a01b0390911680835290822091909155806108fc610e76606485611420565b6040518115909202915f818181858888f19350505050158015610e9b573d5f803e3d5ffd5b50336108fc610eab606485611420565b610eb5903461143f565b6040518115909202915f818181858888f19350505050158015610eda573d5f803e3d5ffd5b505f8381526008602090815260408083208054336001600160a01b03199182168117909255818552600384528285208054600181810183559187528587200189905588865260048552838620805491820181558652848620018054909116909117905585835260029091529020805460ff19169055610f598184610fb0565b505050565b6003602052815f5260405f208181548110610f77575f80fd5b905f5260205f20015f91509150505481565b60098181548110610bcb575f80fd5b60076020525f908152604090208054610b3d906112a0565b6001600160a01b0382165f908152600360205260408120905b81548110156110745782828281548110610fe557610fe561128c565b905f5260205f2001540361106257815482906110039060019061143f565b815481106110135761101361128c565b905f5260205f20015482828154811061102e5761102e61128c565b905f5260205f2001819055508180548061104a5761104a611452565b600190038181905f5260205f20015f90559055611074565b8061106c816112ec565b915050610fc9565b50505050565b80356001600160a01b0381168114611090575f80fd5b919050565b5f602082840312156110a5575f80fd5b6110ae8261107a565b9392505050565b5f81518084525f5b818110156110d9576020818501810151868301820152016110bd565b505f602082860101526020601f19601f83011685010191505092915050565b5f602080830181845280855180835260408601915060408160051b87010192508387015f5b8281101561114b57603f198886030184526111398583516110b5565b9450928501929085019060010161111d565b5092979650505050505050565b5f60208284031215611168575f80fd5b5035919050565b5f8060408385031215611180575f80fd5b50508035926020909101359150565b634e487b7160e01b5f52604160045260245ffd5b5f80604083850312156111b4575f80fd5b823567ffffffffffffffff808211156111cb575f80fd5b818501915085601f8301126111de575f80fd5b8135818111156111f0576111f061118f565b604051601f8201601f19908116603f011681019083821181831017156112185761121861118f565b81604052828152886020848701011115611230575f80fd5b826020860160208301375f602093820184015298969091013596505050505050565b602081525f6110ae60208301846110b5565b5f8060408385031215611275575f80fd5b61127e8361107a565b946020939093013593505050565b634e487b7160e01b5f52603260045260245ffd5b600181811c908216806112b457607f821691505b6020821081036112d257634e487b7160e01b5f52602260045260245ffd5b50919050565b634e487b7160e01b5f52601160045260245ffd5b5f600182016112fd576112fd6112d8565b5060010190565b808201808211156108f4576108f46112d8565b601f821115610f59575f81815260208120601f850160051c8101602086101561133d5750805b601f850160051c820191505b8181101561135c57828155600101611349565b505050505050565b815167ffffffffffffffff81111561137e5761137e61118f565b6113928161138c84546112a0565b84611317565b602080601f8311600181146113c5575f84156113ae5750858301515b5f19600386901b1c1916600185901b17855561135c565b5f85815260208120601f198616915b828110156113f3578886015182559484019460019091019084016113d4565b508582101561141057878501515f19600388901b60f8161c191681555b5050505050600190811b01905550565b5f8261143a57634e487b7160e01b5f52601260045260245ffd5b500490565b818103818111156108f4576108f46112d8565b634e487b7160e01b5f52603160045260245ffdfea264697066735822122002a1aa32d84ddba89ce3dc3252f466addb5ab554a585772677c3d4b868fcea9764736f6c63430008140033",
  "linkReferences": {},
  "deployedLinkReferences": {}
}