{
  "_format": "hh-sol-artifact-1",
  "contractName": "Realty",
  "sourceName": "contracts/Realty.sol",
  "abi": [
    {
      "inputs": [],
      "stateMutability": "nonpayable",
      "type": "constructor"
    },
    {
      "inputs": [
        {
          "internalType": "address",
          "name": "sender",
          "type": "address"
        },
        {
          "internalType": "uint256",
          "name": "tokenId",
          "type": "uint256"
        },
        {
          "internalType": "address",
          "name": "owner",
          "type": "address"
        }
      ],
      "name": "ERC721IncorrectOwner",
      "type": "error"
    },
    {
      "inputs": [
        {
          "internalType": "address",
          "name": "operator",
          "type": "address"
        },
        {
          "internalType": "uint256",
          "name": "tokenId",
          "type": "uint256"
        }
      ],
      "name": "ERC721InsufficientApproval",
      "type": "error"
    },
    {
      "inputs": [
        {
          "internalType": "address",
          "name": "approver",
          "type": "address"
        }
      ],
      "name": "ERC721InvalidApprover",
      "type": "error"
    },
    {
      "inputs": [
        {
          "internalType": "address",
          "name": "operator",
          "type": "address"
        }
      ],
      "name": "ERC721InvalidOperator",
      "type": "error"
    },
    {
      "inputs": [
        {
          "internalType": "address",
          "name": "owner",
          "type": "address"
        }
      ],
      "name": "ERC721InvalidOwner",
      "type": "error"
    },
    {
      "inputs": [
        {
          "internalType": "address",
          "name": "receiver",
          "type": "address"
        }
      ],
      "name": "ERC721InvalidReceiver",
      "type": "error"
    },
    {
      "inputs": [
        {
          "internalType": "address",
          "name": "sender",
          "type": "address"
        }
      ],
      "name": "ERC721InvalidSender",
      "type": "error"
    },
    {
      "inputs": [
        {
          "internalType": "uint256",
          "name": "tokenId",
          "type": "uint256"
        }
      ],
      "name": "ERC721NonexistentToken",
      "type": "error"
    },
    {
      "anonymous": false,
      "inputs": [
        {
          "indexed": true,
          "internalType": "address",
          "name": "owner",
          "type": "address"
        },
        {
          "indexed": true,
          "internalType": "address",
          "name": "approved",
          "type": "address"
        },
        {
          "indexed": true,
          "internalType": "uint256",
          "name": "tokenId",
          "type": "uint256"
        }
      ],
      "name": "Approval",
      "type": "event"
    },
    {
      "anonymous": false,
      "inputs": [
        {
          "indexed": true,
          "internalType": "address",
          "name": "owner",
          "type": "address"
        },
        {
          "indexed": true,
          "internalType": "address",
          "name": "operator",
          "type": "address"
        },
        {
          "indexed": false,
          "internalType": "bool",
          "name": "approved",
          "type": "bool"
        }
      ],
      "name": "ApprovalForAll",
      "type": "event"
    },
    {
      "anonymous": false,
      "inputs": [
        {
          "indexed": false,
          "internalType": "uint256",
          "name": "_fromTokenId",
          "type": "uint256"
        },
        {
          "indexed": false,
          "internalType": "uint256",
          "name": "_toTokenId",
          "type": "uint256"
        }
      ],
      "name": "BatchMetadataUpdate",
      "type": "event"
    },
    {
      "anonymous": false,
      "inputs": [
        {
          "indexed": false,
          "internalType": "uint256",
          "name": "_tokenId",
          "type": "uint256"
        }
      ],
      "name": "MetadataUpdate",
      "type": "event"
    },
    {
      "anonymous": false,
      "inputs": [
        {
          "indexed": true,
          "internalType": "address",
          "name": "from",
          "type": "address"
        },
        {
          "indexed": true,
          "internalType": "address",
          "name": "to",
          "type": "address"
        },
        {
          "indexed": true,
          "internalType": "uint256",
          "name": "tokenId",
          "type": "uint256"
        }
      ],
      "name": "Transfer",
      "type": "event"
    },
    {
      "inputs": [
        {
          "internalType": "uint256",
          "name": "",
          "type": "uint256"
        }
      ],
      "name": "AllProperties",
      "outputs": [
        {
          "internalType": "uint256",
          "name": "",
          "type": "uint256"
        }
      ],
      "stateMutability": "view",
      "type": "function"
    },
    {
      "inputs": [
        {
          "internalType": "uint256",
          "name": "propertyID",
          "type": "uint256"
        }
      ],
      "name": "List_Property",
      "outputs": [],
      "stateMutability": "nonpayable",
      "type": "function"
    },
    {
      "inputs": [],
      "name": "allListedProperties",
      "outputs": [
        {
          "internalType": "string[]",
          "name": "",
          "type": "string[]"
        }
      ],
      "stateMutability": "view",
      "type": "function"
    },
    {
      "inputs": [],
      "name": "allProperties",
      "outputs": [
        {
          "internalType": "string[]",
          "name": "",
          "type": "string[]"
        }
      ],
      "stateMutability": "view",
      "type": "function"
    },
    {
      "inputs": [
        {
          "internalType": "address",
          "name": "_owner",
          "type": "address"
        }
      ],
      "name": "allPropertiesOwnedBy",
      "outputs": [
        {
          "internalType": "string[]",
          "name": "",
          "type": "string[]"
        }
      ],
      "stateMutability": "view",
      "type": "function"
    },
    {
      "inputs": [
        {
          "internalType": "uint256",
          "name": "",
          "type": "uint256"
        },
        {
          "internalType": "uint256",
          "name": "",
          "type": "uint256"
        }
      ],
      "name": "allowners",
      "outputs": [
        {
          "internalType": "address",
          "name": "",
          "type": "address"
        }
      ],
      "stateMutability": "view",
      "type": "function"
    },
    {
      "inputs": [
        {
          "internalType": "address",
          "name": "to",
          "type": "address"
        },
        {
          "internalType": "uint256",
          "name": "tokenId",
          "type": "uint256"
        }
      ],
      "name": "approve",
      "outputs": [],
      "stateMutability": "nonpayable",
      "type": "function"
    },
    {
      "inputs": [
        {
          "internalType": "address",
          "name": "owner",
          "type": "address"
        }
      ],
      "name": "balanceOf",
      "outputs": [
        {
          "internalType": "uint256",
          "name": "",
          "type": "uint256"
        }
      ],
      "stateMutability": "view",
      "type": "function"
    },
    {
      "inputs": [
        {
          "internalType": "uint256",
          "name": "propertyID",
          "type": "uint256"
        },
        {
          "internalType": "uint256",
          "name": "price",
          "type": "uint256"
        }
      ],
      "name": "buyProperty",
      "outputs": [],
      "stateMutability": "payable",
      "type": "function"
    },
    {
      "inputs": [
        {
          "internalType": "uint256",
          "name": "tokenId",
          "type": "uint256"
        }
      ],
      "name": "getApproved",
      "outputs": [
        {
          "internalType": "address",
          "name": "",
          "type": "address"
        }
      ],
      "stateMutability": "view",
      "type": "function"
    },
    {
      "inputs": [
        {
          "internalType": "address",
          "name": "owner",
          "type": "address"
        },
        {
          "internalType": "address",
          "name": "operator",
          "type": "address"
        }
      ],
      "name": "isApprovedForAll",
      "outputs": [
        {
          "internalType": "bool",
          "name": "",
          "type": "bool"
        }
      ],
      "stateMutability": "view",
      "type": "function"
    },
    {
      "inputs": [
        {
          "internalType": "uint256",
          "name": "",
          "type": "uint256"
        }
      ],
      "name": "isListed",
      "outputs": [
        {
          "internalType": "bool",
          "name": "",
          "type": "bool"
        }
      ],
      "stateMutability": "view",
      "type": "function"
    },
    {
      "inputs": [
        {
          "internalType": "uint256",
          "name": "",
          "type": "uint256"
        }
      ],
      "name": "isListedArray",
      "outputs": [
        {
          "internalType": "uint256",
          "name": "",
          "type": "uint256"
        }
      ],
      "stateMutability": "view",
      "type": "function"
    },
    {
      "inputs": [
        {
          "internalType": "uint256",
          "name": "",
          "type": "uint256"
        }
      ],
      "name": "isMinted",
      "outputs": [
        {
          "internalType": "bool",
          "name": "",
          "type": "bool"
        }
      ],
      "stateMutability": "view",
      "type": "function"
    },
    {
      "inputs": [
        {
          "internalType": "string",
          "name": "tokenURI",
          "type": "string"
        },
        {
          "internalType": "uint256",
          "name": "propertyID",
          "type": "uint256"
        }
      ],
      "name": "mintNFT",
      "outputs": [
        {
          "internalType": "uint256",
          "name": "",
          "type": "uint256"
        }
      ],
      "stateMutability": "nonpayable",
      "type": "function"
    },
    {
      "inputs": [],
      "name": "name",
      "outputs": [
        {
          "internalType": "string",
          "name": "",
          "type": "string"
        }
      ],
      "stateMutability": "view",
      "type": "function"
    },
    {
      "inputs": [
        {
          "internalType": "address",
          "name": "",
          "type": "address"
        },
        {
          "internalType": "uint256",
          "name": "",
          "type": "uint256"
        }
      ],
      "name": "ownedProperties",
      "outputs": [
        {
          "internalType": "uint256",
          "name": "",
          "type": "uint256"
        }
      ],
      "stateMutability": "view",
      "type": "function"
    },
    {
      "inputs": [
        {
          "internalType": "uint256",
          "name": "tokenId",
          "type": "uint256"
        }
      ],
      "name": "ownerOf",
      "outputs": [
        {
          "internalType": "address",
          "name": "",
          "type": "address"
        }
      ],
      "stateMutability": "view",
      "type": "function"
    },
    {
      "inputs": [
        {
          "internalType": "address",
          "name": "owner",
          "type": "address"
        },
        {
          "internalType": "uint256",
          "name": "propertyId",
          "type": "uint256"
        }
      ],
      "name": "removeProperty",
      "outputs": [],
      "stateMutability": "nonpayable",
      "type": "function"
    },
    {
      "inputs": [
        {
          "internalType": "address",
          "name": "from",
          "type": "address"
        },
        {
          "internalType": "address",
          "name": "to",
          "type": "address"
        },
        {
          "internalType": "uint256",
          "name": "tokenId",
          "type": "uint256"
        }
      ],
      "name": "safeTransferFrom",
      "outputs": [],
      "stateMutability": "nonpayable",
      "type": "function"
    },
    {
      "inputs": [
        {
          "internalType": "address",
          "name": "from",
          "type": "address"
        },
        {
          "internalType": "address",
          "name": "to",
          "type": "address"
        },
        {
          "internalType": "uint256",
          "name": "tokenId",
          "type": "uint256"
        },
        {
          "internalType": "bytes",
          "name": "data",
          "type": "bytes"
        }
      ],
      "name": "safeTransferFrom",
      "outputs": [],
      "stateMutability": "nonpayable",
      "type": "function"
    },
    {
      "inputs": [
        {
          "internalType": "address",
          "name": "operator",
          "type": "address"
        },
        {
          "internalType": "bool",
          "name": "approved",
          "type": "bool"
        }
      ],
      "name": "setApprovalForAll",
      "outputs": [],
      "stateMutability": "nonpayable",
      "type": "function"
    },
    {
      "inputs": [
        {
          "internalType": "bytes4",
          "name": "interfaceId",
          "type": "bytes4"
        }
      ],
      "name": "supportsInterface",
      "outputs": [
        {
          "internalType": "bool",
          "name": "",
          "type": "bool"
        }
      ],
      "stateMutability": "view",
      "type": "function"
    },
    {
      "inputs": [],
      "name": "symbol",
      "outputs": [
        {
          "internalType": "string",
          "name": "",
          "type": "string"
        }
      ],
      "stateMutability": "view",
      "type": "function"
    },
    {
      "inputs": [],
      "name": "tokenIdCounter",
      "outputs": [
        {
          "internalType": "uint256",
          "name": "",
          "type": "uint256"
        }
      ],
      "stateMutability": "view",
      "type": "function"
    },
    {
      "inputs": [
        {
          "internalType": "uint256",
          "name": "tokenId",
          "type": "uint256"
        }
      ],
      "name": "tokenURI",
      "outputs": [
        {
          "internalType": "string",
          "name": "",
          "type": "string"
        }
      ],
      "stateMutability": "view",
      "type": "function"
    },
    {
      "inputs": [
        {
          "internalType": "uint256",
          "name": "",
          "type": "uint256"
        }
      ],
      "name": "tokenURIs",
      "outputs": [
        {
          "internalType": "string",
          "name": "",
          "type": "string"
        }
      ],
      "stateMutability": "view",
      "type": "function"
    },
    {
      "inputs": [
        {
          "internalType": "address",
          "name": "from",
          "type": "address"
        },
        {
          "internalType": "address",
          "name": "to",
          "type": "address"
        },
        {
          "internalType": "uint256",
          "name": "tokenId",
          "type": "uint256"
        }
      ],
      "name": "transferFrom",
      "outputs": [],
      "stateMutability": "nonpayable",
      "type": "function"
    }
  ],
  "bytecode": "0x608060405260016007553480156200001657600080fd5b50604051806040016040528060068152602001655245414c545960d01b8152506040518060400160405280600381526020016214931560ea1b815250816000908162000063919062000120565b50600162000072828262000120565b505050620001ec565b634e487b7160e01b600052604160045260246000fd5b600181811c90821680620000a657607f821691505b602082108103620000c757634e487b7160e01b600052602260045260246000fd5b50919050565b601f8211156200011b57600081815260208120601f850160051c81016020861015620000f65750805b601f850160051c820191505b81811015620001175782815560010162000102565b5050505b505050565b81516001600160401b038111156200013c576200013c6200007b565b62000154816200014d845462000091565b84620000cd565b602080601f8311600181146200018c5760008415620001735750858301515b600019600386901b1c1916600185901b17855562000117565b600085815260208120601f198616915b82811015620001bd578886015182559484019460019091019084016200019c565b5085821015620001dc5787850151600019600388901b60f8161c191681555b5050505050600190811b01905550565b61218280620001fc6000396000f3fe6080604052600436106101b75760003560e01c806370a08231116100ec578063b6040c101161008a578063c87b56dd11610064578063c87b56dd146104e0578063e81e9ab914610500578063e985e9c514610520578063fcce48831461054057600080fd5b8063b6040c1014610480578063b88d4fde146104a0578063bf1b78b4146104c057600080fd5b806398bdf6f5116100c657806398bdf6f5146104225780639a92595914610438578063a22cb4651461044d578063a772c9271461046d57600080fd5b806370a08231146103cd5780637fc9a915146103ed57806395d89b411461040d57600080fd5b806333c41a901161015957806359360e591161013357806359360e591461033f5780635afa3a721461035f5780636352211e1461038d5780636c8b703f146103ad57600080fd5b806333c41a90146102cf57806342842e0e146102ff578063444ec9381461031f57600080fd5b8063081812fc11610195578063081812fc14610240578063095ea7b31461027857806323b872dd1461029a578063248441fa146102ba57600080fd5b806301ffc9a7146101bc5780630680f4ec146101f157806306fdde031461021e575b600080fd5b3480156101c857600080fd5b506101dc6101d7366004611b70565b610570565b60405190151581526020015b60405180910390f35b3480156101fd57600080fd5b5061021161020c366004611ba9565b61059b565b6040516101e89190611c14565b34801561022a57600080fd5b5061023361074c565b6040516101e89190611c76565b34801561024c57600080fd5b5061026061025b366004611c89565b6107de565b6040516001600160a01b0390911681526020016101e8565b34801561028457600080fd5b50610298610293366004611ca2565b610807565b005b3480156102a657600080fd5b506102986102b5366004611ccc565b610816565b3480156102c657600080fd5b506102116108a6565b3480156102db57600080fd5b506101dc6102ea366004611c89565b600c6020526000908152604090205460ff1681565b34801561030b57600080fd5b5061029861031a366004611ccc565b6109f8565b34801561032b57600080fd5b5061029861033a366004611c89565b610a18565b34801561034b57600080fd5b5061026061035a366004611d08565b610ab5565b34801561036b57600080fd5b5061037f61037a366004611db6565b610aed565b6040519081526020016101e8565b34801561039957600080fd5b506102606103a8366004611c89565b610c27565b3480156103b957600080fd5b506102336103c8366004611c89565b610c32565b3480156103d957600080fd5b5061037f6103e8366004611ba9565b610ccc565b3480156103f957600080fd5b5061037f610408366004611c89565b610d14565b34801561041957600080fd5b50610233610d35565b34801561042e57600080fd5b5061037f60075481565b34801561044457600080fd5b50610211610d44565b34801561045957600080fd5b50610298610468366004611e0f565b610e8f565b61029861047b366004611d08565b610e9a565b34801561048c57600080fd5b5061037f61049b366004611ca2565b611058565b3480156104ac57600080fd5b506102986104bb366004611e4b565b611089565b3480156104cc57600080fd5b5061037f6104db366004611c89565b6110a0565b3480156104ec57600080fd5b506102336104fb366004611c89565b6110b0565b34801561050c57600080fd5b5061029861051b366004611ca2565b6111c1565b34801561052c57600080fd5b506101dc61053b366004611ec7565b61128f565b34801561054c57600080fd5b506101dc61055b366004611c89565b60096020526000908152604090205460ff1681565b60006001600160e01b03198216632483248360e11b14806105955750610595826112bd565b92915050565b6001600160a01b0381166000908152600a602090815260408083208054825181850281018501909352808352606094938301828280156105fa57602002820191906000526020600020905b8154815260200190600101908083116105e6575b505050505090506000815167ffffffffffffffff81111561061d5761061d611d2a565b60405190808252806020026020018201604052801561065057816020015b606081526020019060019003908161063b5790505b50905060005b8251811015610744576008600084838151811061067557610675611efa565b60200260200101518152602001908152602001600020805461069690611f10565b80601f01602080910402602001604051908101604052809291908181526020018280546106c290611f10565b801561070f5780601f106106e45761010080835404028352916020019161070f565b820191906000526020600020905b8154815290600101906020018083116106f257829003601f168201915b505050505082828151811061072657610726611efa565b6020026020010181905250808061073c90611f60565b915050610656565b509392505050565b60606000805461075b90611f10565b80601f016020809104026020016040519081016040528092919081815260200182805461078790611f10565b80156107d45780601f106107a9576101008083540402835291602001916107d4565b820191906000526020600020905b8154815290600101906020018083116107b757829003601f168201915b5050505050905090565b60006107e98261130d565b506000828152600460205260409020546001600160a01b0316610595565b610812828233611346565b5050565b6001600160a01b03821661084557604051633250574960e11b8152600060048201526024015b60405180910390fd5b6000610852838333611353565b9050836001600160a01b0316816001600160a01b0316146108a0576040516364283d7b60e01b81526001600160a01b038086166004830152602482018490528216604482015260640161083c565b50505050565b600e5460609060008167ffffffffffffffff8111156108c7576108c7611d2a565b6040519080825280602002602001820160405280156108fa57816020015b60608152602001906001900390816108e55790505b50905060005b828110156109f15760086000600e838154811061091f5761091f611efa565b90600052602060002001548152602001908152602001600020805461094390611f10565b80601f016020809104026020016040519081016040528092919081815260200182805461096f90611f10565b80156109bc5780601f10610991576101008083540402835291602001916109bc565b820191906000526020600020905b81548152906001019060200180831161099f57829003601f168201915b50505050508282815181106109d3576109d3611efa565b602002602001018190525080806109e990611f60565b915050610900565b5092915050565b610a1383838360405180602001604052806000815250611089565b505050565b33610a2282610c27565b6001600160a01b031614610a685760405162461bcd60e51b815260206004820152600d60248201526c2737ba103a34329037bbb732b960991b604482015260640161083c565b600d805460018181019092557fd7b6990105719101dabeb77144f2a3385c8033acd3af97e9423a695e81ad1eb501829055600091825260096020526040909120805460ff19169091179055565b600b6020528160005260406000208181548110610ad157600080fd5b6000918252602090912001546001600160a01b03169150829050565b6000818152600c602052604081205460ff1615610b4c5760405162461bcd60e51b815260206004820152601760248201527f50524f504552545920414c5245414459204d494e544544000000000000000000604482015260640161083c565b600754610b5a906001611f79565b600755610b67338361144c565b610b718284611466565b6000828152600860205260409020610b898482611fda565b50506000818152600c60209081526040808320805460ff1916600190811790915533808552600a84528285208054808401825590865284862001869055858552600b84529184208054808301825590855292842090920180546001600160a01b0319169091179055600e805491820181559091527fbb7b4a454dc3493923482f07822329ed19e8244eff582cc204f8554c3620c3fd01819055919050565b60006105958261130d565b60086020526000908152604090208054610c4b90611f10565b80601f0160208091040260200160405190810160405280929190818152602001828054610c7790611f10565b8015610cc45780601f10610c9957610100808354040283529160200191610cc4565b820191906000526020600020905b815481529060010190602001808311610ca757829003601f168201915b505050505081565b60006001600160a01b038216610cf8576040516322718ad960e21b81526000600482015260240161083c565b506001600160a01b031660009081526003602052604090205490565b600e8181548110610d2457600080fd5b600091825260209091200154905081565b60606001805461075b90611f10565b600d5460609060008167ffffffffffffffff811115610d6557610d65611d2a565b604051908082528060200260200182016040528015610d9857816020015b6060815260200190600190039081610d835790505b50905060005b828110156109f15760086000600d8381548110610dbd57610dbd611efa565b906000526020600020015481526020019081526020016000208054610de190611f10565b80601f0160208091040260200160405190810160405280929190818152602001828054610e0d90611f10565b8015610e5a5780601f10610e2f57610100808354040283529160200191610e5a565b820191906000526020600020905b815481529060010190602001808311610e3d57829003601f168201915b5050505050828281518110610e7157610e71611efa565b60200260200101819052508080610e8790611f60565b915050610d9e565b6108123383836114b6565b60008281526009602052604090205460ff16610ef05760405162461bcd60e51b8152602060048201526015602482015274141c9bdc195c9d1a595cc8139bdd08131a5cdd1959605a1b604482015260640161083c565b80341015610f355760405162461bcd60e51b8152602060048201526012602482015271496e73756666696369656e742066756e647360701b604482015260640161083c565b33610f3f83610c27565b6001600160a01b031603610fa15760405162461bcd60e51b815260206004820152602360248201527f4f776e65722063616e6e6f7420627579207468656972206f776e2070726f706560448201526272747960e81b606482015260840161083c565b6000610fac83610c27565b9050610fb9813385611555565b6040516001600160a01b0382169083156108fc029084906000818181858888f19350505050158015610fef573d6000803e3d6000fd5b50336000818152600a6020908152604080832080546001818101835591855283852001889055878452600b83528184208054918201815584528284200180546001600160a01b0319169094179093558582526009905220805460ff19169055610a1381846111c1565b600a602052816000526040600020818154811061107457600080fd5b90600052602060002001600091509150505481565b611094848484610816565b6108a084848484611605565b600d8181548110610d2457600080fd5b60606110bb8261130d565b50600082815260066020526040812080546110d590611f10565b80601f016020809104026020016040519081016040528092919081815260200182805461110190611f10565b801561114e5780601f106111235761010080835404028352916020019161114e565b820191906000526020600020905b81548152906001019060200180831161113157829003601f168201915b50505050509050600061116c60408051602081019091526000815290565b9050805160000361117e575092915050565b8151156111b057808260405160200161119892919061209a565b60405160208183030381529060405292505050919050565b6111b98461172e565b949350505050565b6001600160a01b0382166000908152600a60205260408120905b81548110156108a057828282815481106111f7576111f7611efa565b90600052602060002001540361127d5781548290611217906001906120c9565b8154811061122757611227611efa565b906000526020600020015482828154811061124457611244611efa565b906000526020600020018190555081805480611262576112626120dc565b600190038181906000526020600020016000905590556108a0565b8061128781611f60565b9150506111db565b6001600160a01b03918216600090815260056020908152604080832093909416825291909152205460ff1690565b60006001600160e01b031982166380ac58cd60e01b14806112ee57506001600160e01b03198216635b5e139f60e01b145b8061059557506301ffc9a760e01b6001600160e01b0319831614610595565b6000818152600260205260408120546001600160a01b03168061059557604051637e27328960e01b81526004810184905260240161083c565b610a1383838360016117a3565b6000828152600260205260408120546001600160a01b0390811690831615611380576113808184866118a9565b6001600160a01b038116156113be5761139d6000856000806117a3565b6001600160a01b038116600090815260036020526040902080546000190190555b6001600160a01b038516156113ed576001600160a01b0385166000908152600360205260409020805460010190555b60008481526002602052604080822080546001600160a01b0319166001600160a01b0389811691821790925591518793918516917fddf252ad1be2c89b69c2b068fc378daa952ba7f163c4a11628f55a4df523b3ef91a4949350505050565b61081282826040518060200160405280600081525061190d565b600082815260066020526040902061147e8282611fda565b506040518281527ff8e1a15aba9398e019f0b49df1a4fde98ee17ae345cb5f6b5e2c27f5033e8ce79060200160405180910390a15050565b6001600160a01b0382166114e857604051630b61174360e31b81526001600160a01b038316600482015260240161083c565b6001600160a01b03838116600081815260056020908152604080832094871680845294825291829020805460ff191686151590811790915591519182527f17307eab39ab6107e8899845ad3d59bd9653f200f220920489ca2b5937696c31910160405180910390a3505050565b6001600160a01b03821661157f57604051633250574960e11b81526000600482015260240161083c565b600061158d83836000611353565b90506001600160a01b0381166115b957604051637e27328960e01b81526004810183905260240161083c565b836001600160a01b0316816001600160a01b0316146108a0576040516364283d7b60e01b81526001600160a01b038086166004830152602482018490528216604482015260640161083c565b6001600160a01b0383163b156108a057604051630a85bd0160e11b81526001600160a01b0384169063150b7a02906116479033908890879087906004016120f2565b6020604051808303816000875af1925050508015611682575060408051601f3d908101601f1916820190925261167f9181019061212f565b60015b6116eb573d8080156116b0576040519150601f19603f3d011682016040523d82523d6000602084013e6116b5565b606091505b5080516000036116e357604051633250574960e11b81526001600160a01b038516600482015260240161083c565b805181602001fd5b6001600160e01b03198116630a85bd0160e11b1461172757604051633250574960e11b81526001600160a01b038516600482015260240161083c565b5050505050565b60606117398261130d565b50600061175160408051602081019091526000815290565b90506000815111611771576040518060200160405280600081525061179c565b8061177b84611924565b60405160200161178c92919061209a565b6040516020818303038152906040525b9392505050565b80806117b757506001600160a01b03821615155b156118795760006117c78461130d565b90506001600160a01b038316158015906117f35750826001600160a01b0316816001600160a01b031614155b80156118065750611804818461128f565b155b1561182f5760405163a9fbf51f60e01b81526001600160a01b038416600482015260240161083c565b81156118775783856001600160a01b0316826001600160a01b03167f8c5be1e5ebec7d5bd14f71427d1e84f3dd0314c0f7b2291e5b200ac8c7c3b92560405160405180910390a45b505b5050600090815260046020526040902080546001600160a01b0319166001600160a01b0392909216919091179055565b6118b48383836119b7565b610a13576001600160a01b0383166118e257604051637e27328960e01b81526004810182905260240161083c565b60405163177e802f60e01b81526001600160a01b03831660048201526024810182905260440161083c565b6119178383611a1a565b610a136000848484611605565b6060600061193183611a7f565b600101905060008167ffffffffffffffff81111561195157611951611d2a565b6040519080825280601f01601f19166020018201604052801561197b576020820181803683370190505b5090508181016020015b600019016f181899199a1a9b1b9c1cb0b131b232b360811b600a86061a8153600a850494508461198557509392505050565b60006001600160a01b038316158015906111b95750826001600160a01b0316846001600160a01b031614806119f157506119f1848461128f565b806111b95750506000908152600460205260409020546001600160a01b03908116911614919050565b6001600160a01b038216611a4457604051633250574960e11b81526000600482015260240161083c565b6000611a5283836000611353565b90506001600160a01b03811615610a13576040516339e3563760e11b81526000600482015260240161083c565b60008072184f03e93ff9f4daa797ed6e38ed64bf6a1f0160401b8310611abe5772184f03e93ff9f4daa797ed6e38ed64bf6a1f0160401b830492506040015b6d04ee2d6d415b85acef81000000008310611aea576d04ee2d6d415b85acef8100000000830492506020015b662386f26fc100008310611b0857662386f26fc10000830492506010015b6305f5e1008310611b20576305f5e100830492506008015b6127108310611b3457612710830492506004015b60648310611b46576064830492506002015b600a83106105955760010192915050565b6001600160e01b031981168114611b6d57600080fd5b50565b600060208284031215611b8257600080fd5b813561179c81611b57565b80356001600160a01b0381168114611ba457600080fd5b919050565b600060208284031215611bbb57600080fd5b61179c82611b8d565b60005b83811015611bdf578181015183820152602001611bc7565b50506000910152565b60008151808452611c00816020860160208601611bc4565b601f01601f19169290920160200192915050565b6000602080830181845280855180835260408601915060408160051b870101925083870160005b82811015611c6957603f19888603018452611c57858351611be8565b94509285019290850190600101611c3b565b5092979650505050505050565b60208152600061179c6020830184611be8565b600060208284031215611c9b57600080fd5b5035919050565b60008060408385031215611cb557600080fd5b611cbe83611b8d565b946020939093013593505050565b600080600060608486031215611ce157600080fd5b611cea84611b8d565b9250611cf860208501611b8d565b9150604084013590509250925092565b60008060408385031215611d1b57600080fd5b50508035926020909101359150565b634e487b7160e01b600052604160045260246000fd5b600067ffffffffffffffff80841115611d5b57611d5b611d2a565b604051601f8501601f19908116603f01168101908282118183101715611d8357611d83611d2a565b81604052809350858152868686011115611d9c57600080fd5b858560208301376000602087830101525050509392505050565b60008060408385031215611dc957600080fd5b823567ffffffffffffffff811115611de057600080fd5b8301601f81018513611df157600080fd5b611e0085823560208401611d40565b95602094909401359450505050565b60008060408385031215611e2257600080fd5b611e2b83611b8d565b915060208301358015158114611e4057600080fd5b809150509250929050565b60008060008060808587031215611e6157600080fd5b611e6a85611b8d565b9350611e7860208601611b8d565b925060408501359150606085013567ffffffffffffffff811115611e9b57600080fd5b8501601f81018713611eac57600080fd5b611ebb87823560208401611d40565b91505092959194509250565b60008060408385031215611eda57600080fd5b611ee383611b8d565b9150611ef160208401611b8d565b90509250929050565b634e487b7160e01b600052603260045260246000fd5b600181811c90821680611f2457607f821691505b602082108103611f4457634e487b7160e01b600052602260045260246000fd5b50919050565b634e487b7160e01b600052601160045260246000fd5b600060018201611f7257611f72611f4a565b5060010190565b8082018082111561059557610595611f4a565b601f821115610a1357600081815260208120601f850160051c81016020861015611fb35750805b601f850160051c820191505b81811015611fd257828155600101611fbf565b505050505050565b815167ffffffffffffffff811115611ff457611ff4611d2a565b612008816120028454611f10565b84611f8c565b602080601f83116001811461203d57600084156120255750858301515b600019600386901b1c1916600185901b178555611fd2565b600085815260208120601f198616915b8281101561206c5788860151825594840194600190910190840161204d565b508582101561208a5787850151600019600388901b60f8161c191681555b5050505050600190811b01905550565b600083516120ac818460208801611bc4565b8351908301906120c0818360208801611bc4565b01949350505050565b8181038181111561059557610595611f4a565b634e487b7160e01b600052603160045260246000fd5b6001600160a01b038581168252841660208201526040810183905260806060820181905260009061212590830184611be8565b9695505050505050565b60006020828403121561214157600080fd5b815161179c81611b5756fea264697066735822122045c0cd2d1a70952007dbad28583af1f544d553d4340df705a97610fe8f38859464736f6c63430008140033",
  "linkReferences": {},
  "deployedLinkReferences": {}
}