{
  "_format": "hh-sol-artifact-1",
  "contractName": "Realty",
  "sourceName": "contracts/Realty.sol",
  "abi": [
    {
      "inputs": [
        {
          "internalType": "uint256",
          "name": "",
          "type": "uint256"
        }
      ],
      "name": "AllProperties",
      "outputs": [
        {
          "internalType": "uint256",
          "name": "",
          "type": "uint256"
        }
      ],
      "stateMutability": "view",
      "type": "function"
    },
    {
      "inputs": [
        {
          "internalType": "uint256",
          "name": "propertyID",
          "type": "uint256"
        }
      ],
      "name": "List_Property",
      "outputs": [],
      "stateMutability": "nonpayable",
      "type": "function"
    },
    {
      "inputs": [],
      "name": "allListedProperties",
      "outputs": [
        {
          "internalType": "string[]",
          "name": "",
          "type": "string[]"
        }
      ],
      "stateMutability": "view",
      "type": "function"
    },
    {
      "inputs": [],
      "name": "allProperties",
      "outputs": [
        {
          "internalType": "string[]",
          "name": "",
          "type": "string[]"
        }
      ],
      "stateMutability": "view",
      "type": "function"
    },
    {
      "inputs": [
        {
          "internalType": "address",
          "name": "_owner",
          "type": "address"
        }
      ],
      "name": "allPropertiesOwnedBy",
      "outputs": [
        {
          "internalType": "string[]",
          "name": "",
          "type": "string[]"
        }
      ],
      "stateMutability": "view",
      "type": "function"
    },
    {
      "inputs": [
        {
          "internalType": "uint256",
          "name": "",
          "type": "uint256"
        },
        {
          "internalType": "uint256",
          "name": "",
          "type": "uint256"
        }
      ],
      "name": "allowners",
      "outputs": [
        {
          "internalType": "address",
          "name": "",
          "type": "address"
        }
      ],
      "stateMutability": "view",
      "type": "function"
    },
    {
      "inputs": [
        {
          "internalType": "uint256",
          "name": "propertyID",
          "type": "uint256"
        },
        {
          "internalType": "uint256",
          "name": "price",
          "type": "uint256"
        }
      ],
      "name": "buyProperty",
      "outputs": [],
      "stateMutability": "payable",
      "type": "function"
    },
    {
      "inputs": [
        {
          "internalType": "uint256",
          "name": "",
          "type": "uint256"
        }
      ],
      "name": "isListed",
      "outputs": [
        {
          "internalType": "bool",
          "name": "",
          "type": "bool"
        }
      ],
      "stateMutability": "view",
      "type": "function"
    },
    {
      "inputs": [
        {
          "internalType": "uint256",
          "name": "",
          "type": "uint256"
        }
      ],
      "name": "isListedArray",
      "outputs": [
        {
          "internalType": "uint256",
          "name": "",
          "type": "uint256"
        }
      ],
      "stateMutability": "view",
      "type": "function"
    },
    {
      "inputs": [
        {
          "internalType": "uint256",
          "name": "",
          "type": "uint256"
        }
      ],
      "name": "isMinted",
      "outputs": [
        {
          "internalType": "bool",
          "name": "",
          "type": "bool"
        }
      ],
      "stateMutability": "view",
      "type": "function"
    },
    {
      "inputs": [
        {
          "internalType": "string",
          "name": "tokenURI",
          "type": "string"
        },
        {
          "internalType": "uint256",
          "name": "propertyID",
          "type": "uint256"
        }
      ],
      "name": "mintNFT",
      "outputs": [
        {
          "internalType": "uint256",
          "name": "",
          "type": "uint256"
        }
      ],
      "stateMutability": "nonpayable",
      "type": "function"
    },
    {
      "inputs": [
        {
          "internalType": "address",
          "name": "_owner",
          "type": "address"
        }
      ],
      "name": "mintedPropertiesByOwner",
      "outputs": [
        {
          "internalType": "string[]",
          "name": "",
          "type": "string[]"
        }
      ],
      "stateMutability": "view",
      "type": "function"
    },
    {
      "inputs": [
        {
          "internalType": "address",
          "name": "",
          "type": "address"
        },
        {
          "internalType": "uint256",
          "name": "",
          "type": "uint256"
        }
      ],
      "name": "ownedProperties",
      "outputs": [
        {
          "internalType": "uint256",
          "name": "",
          "type": "uint256"
        }
      ],
      "stateMutability": "view",
      "type": "function"
    },
    {
      "inputs": [
        {
          "internalType": "uint256",
          "name": "",
          "type": "uint256"
        }
      ],
      "name": "ownerof",
      "outputs": [
        {
          "internalType": "address",
          "name": "",
          "type": "address"
        }
      ],
      "stateMutability": "view",
      "type": "function"
    },
    {
      "inputs": [
        {
          "internalType": "uint256",
          "name": "propertyID",
          "type": "uint256"
        }
      ],
      "name": "pastOwners",
      "outputs": [
        {
          "internalType": "address[]",
          "name": "",
          "type": "address[]"
        }
      ],
      "stateMutability": "view",
      "type": "function"
    },
    {
      "inputs": [
        {
          "internalType": "address",
          "name": "owner",
          "type": "address"
        },
        {
          "internalType": "uint256",
          "name": "propertyId",
          "type": "uint256"
        }
      ],
      "name": "removeProperty",
      "outputs": [],
      "stateMutability": "nonpayable",
      "type": "function"
    },
    {
      "inputs": [
        {
          "internalType": "address",
          "name": "",
          "type": "address"
        }
      ],
      "name": "safemint",
      "outputs": [
        {
          "internalType": "uint256",
          "name": "",
          "type": "uint256"
        }
      ],
      "stateMutability": "view",
      "type": "function"
    },
    {
      "inputs": [
        {
          "internalType": "uint256",
          "name": "",
          "type": "uint256"
        }
      ],
      "name": "setTokenURI",
      "outputs": [
        {
          "internalType": "string",
          "name": "",
          "type": "string"
        }
      ],
      "stateMutability": "view",
      "type": "function"
    },
    {
      "inputs": [],
      "name": "tokenIdCounter",
      "outputs": [
        {
          "internalType": "uint256",
          "name": "",
          "type": "uint256"
        }
      ],
      "stateMutability": "view",
      "type": "function"
    },
    {
      "inputs": [
        {
          "internalType": "uint256",
          "name": "",
          "type": "uint256"
        }
      ],
      "name": "tokenURIs",
      "outputs": [
        {
          "internalType": "string",
          "name": "",
          "type": "string"
        }
      ],
      "stateMutability": "view",
      "type": "function"
    }
  ],
  "bytecode": "0x608060405260015f55348015610013575f80fd5b50611588806100215f395ff3fe60806040526004361061011b575f3560e01c806398bdf6f51161009d578063bf1b78b411610062578063bf1b78b41461034e578063bff261261461036d578063c2c802421461038c578063e81e9ab9146103b8578063fcce4883146103d7575f80fd5b806398bdf6f5146102c05780639a925959146102d4578063a772c927146102e8578063b6040c10146102fb578063bdebb5251461031a575f80fd5b80635afa3a72116100e35780635afa3a72146101fe57806368897cf21461022b5780636c8b703f1461024a5780636ed452fd146102765780637fc9a915146102a1575f80fd5b80630680f4ec1461011f578063248441fa1461015457806333c41a9014610168578063444ec938146101a657806359360e59146101c7575b5f80fd5b34801561012a575f80fd5b5061013e610139366004611135565b610405565b60405161014b9190611198565b60405180910390f35b34801561015f575f80fd5b5061013e6105ad565b348015610173575f80fd5b506101966101823660046111f8565b60056020525f908152604090205460ff1681565b604051901515815260200161014b565b3480156101b1575f80fd5b506101c56101c03660046111f8565b6106f7565b005b3480156101d2575f80fd5b506101e66101e136600461120f565b61079d565b6040516001600160a01b03909116815260200161014b565b348015610209575f80fd5b5061021d610218366004611243565b6107d1565b60405190815260200161014b565b348015610236575f80fd5b5061013e610245366004611135565b610931565b348015610255575f80fd5b506102696102643660046111f8565b610b5c565b60405161014b91906112f2565b348015610281575f80fd5b5061021d610290366004611135565b60066020525f908152604090205481565b3480156102ac575f80fd5b5061021d6102bb3660046111f8565b610bf3565b3480156102cb575f80fd5b5061021d5f5481565b3480156102df575f80fd5b5061013e610c12565b6101c56102f636600461120f565b610d55565b348015610306575f80fd5b5061021d610315366004611304565b610f95565b348015610325575f80fd5b506101e66103343660046111f8565b60086020525f90815260409020546001600160a01b031681565b348015610359575f80fd5b5061021d6103683660046111f8565b610fc0565b348015610378575f80fd5b506102696103873660046111f8565b610fcf565b348015610397575f80fd5b506103ab6103a63660046111f8565b610fe7565b60405161014b919061132c565b3480156103c3575f80fd5b506101c56103d2366004611304565b611050565b3480156103e2575f80fd5b506101966103f13660046111f8565b60026020525f908152604090205460ff1681565b6001600160a01b0381165f90815260036020908152604080832080548251818502810185019093528083526060949383018282801561046157602002820191905f5260205f20905b81548152602001906001019080831161044d575b505050505090505f815167ffffffffffffffff8111156104835761048361122f565b6040519080825280602002602001820160405280156104b657816020015b60608152602001906001900390816104a15790505b5090505f5b82518110156105a55760015f8483815181106104d9576104d9611378565b602002602001015181526020019081526020015f2080546104f99061138c565b80601f01602080910402602001604051908101604052809291908181526020018280546105259061138c565b80156105705780601f1061054757610100808354040283529160200191610570565b820191905f5260205f20905b81548152906001019060200180831161055357829003601f168201915b505050505082828151811061058757610587611378565b6020026020010181905250808061059d906113d8565b9150506104bb565b509392505050565b600a546060905f8167ffffffffffffffff8111156105cd576105cd61122f565b60405190808252806020026020018201604052801561060057816020015b60608152602001906001900390816105eb5790505b5090505f5b828110156106f05760015f600a838154811061062357610623611378565b905f5260205f20015481526020019081526020015f2080546106449061138c565b80601f01602080910402602001604051908101604052809291908181526020018280546106709061138c565b80156106bb5780601f10610692576101008083540402835291602001916106bb565b820191905f5260205f20905b81548152906001019060200180831161069e57829003601f168201915b50505050508282815181106106d2576106d2611378565b602002602001018190525080806106e8906113d8565b915050610605565b5092915050565b5f818152600860205260409020546001600160a01b031633146107515760405162461bcd60e51b815260206004820152600d60248201526c2737ba103a34329037bbb732b960991b60448201526064015b60405180910390fd5b6009805460018181019092557f6e1540171b6c0c960b71a7020d9f60077f6af931a8bbf590da0223dacf75c7af018290555f91825260026020526040909120805460ff19169091179055565b6004602052815f5260405f2081815481106107b6575f80fd5b5f918252602090912001546001600160a01b03169150829050565b5f8181526005602052604081205460ff161561082f5760405162461bcd60e51b815260206004820152601760248201527f50524f504552545920414c5245414459204d494e5445440000000000000000006044820152606401610748565b5f5461083c9060016113f0565b5f908155338152600660209081526040808320859055848352600790915290206108668482611450565b505f82815260016020526040902061087e8482611450565b50505f818152600560209081526040808320805460ff19166001908117909155338085526003845282852080548084018255908652848620018690558585526008845282852080546001600160a01b03199081168317909155600485529285208054808401825590865293852090930180549092169092179055600a805491820181559091527fc65a7bb8d6351c1cf70c95a316cc6a92839c986682d98bc35f958f4883f9d2a801819055805b92915050565b6001600160a01b0381165f90815260036020908152604080832080548251818502810185019093528083526060949383018282801561098d57602002820191905f5260205f20905b815481526020019060010190808311610979575b505050505090505f815167ffffffffffffffff8111156109af576109af61122f565b6040519080825280602002602001820160405280156109e257816020015b60608152602001906001900390816109cd5790505b5090505f805b8351811015610b525760055f858381518110610a0657610a06611378565b60209081029190910181015182528101919091526040015f205460ff168015610a5e575060025f858381518110610a3f57610a3f611378565b60209081029190910181015182528101919091526040015f205460ff16155b15610b405760015f858381518110610a7857610a78611378565b602002602001015181526020019081526020015f208054610a989061138c565b80601f0160208091040260200160405190810160405280929190818152602001828054610ac49061138c565b8015610b0f5780601f10610ae657610100808354040283529160200191610b0f565b820191905f5260205f20905b815481529060010190602001808311610af257829003601f168201915b5050505050838381518110610b2657610b26611378565b60200260200101819052508180610b3c906113d8565b9250505b80610b4a816113d8565b9150506109e8565b5090949350505050565b60016020525f908152604090208054610b749061138c565b80601f0160208091040260200160405190810160405280929190818152602001828054610ba09061138c565b8015610beb5780601f10610bc257610100808354040283529160200191610beb565b820191905f5260205f20905b815481529060010190602001808311610bce57829003601f168201915b505050505081565b600a8181548110610c02575f80fd5b5f91825260209091200154905081565b6009546060905f8167ffffffffffffffff811115610c3257610c3261122f565b604051908082528060200260200182016040528015610c6557816020015b6060815260200190600190039081610c505790505b5090505f5b828110156106f05760015f60098381548110610c8857610c88611378565b905f5260205f20015481526020019081526020015f208054610ca99061138c565b80601f0160208091040260200160405190810160405280929190818152602001828054610cd59061138c565b8015610d205780601f10610cf757610100808354040283529160200191610d20565b820191905f5260205f20905b815481529060010190602001808311610d0357829003601f168201915b5050505050828281518110610d3757610d37611378565b60200260200101819052508080610d4d906113d8565b915050610c6a565b5f8281526002602052604090205460ff16610da85760405162461bcd60e51b8152602060048201526013602482015272141c9bdc195c9d1e481b9bdd081b1a5cdd1959606a1b6044820152606401610748565b610db360648261150c565b341015610df75760405162461bcd60e51b8152602060048201526012602482015271496e73756666696369656e742066756e647360701b6044820152606401610748565b5f82815260086020526040902054336001600160a01b0390911603610e6a5760405162461bcd60e51b815260206004820152602360248201527f4f776e65722063616e6e6f7420627579207468656972206f776e2070726f706560448201526272747960e81b6064820152608401610748565b5f8281526008602090815260408083205433845260069092528083208590556001600160a01b0390911680835290822091909155806108fc610ead60648561150c565b6040518115909202915f818181858888f19350505050158015610ed2573d5f803e3d5ffd5b50336108fc610ee260648561150c565b610eec903461152b565b6040518115909202915f818181858888f19350505050158015610f11573d5f803e3d5ffd5b505f8381526008602090815260408083208054336001600160a01b03199182168117909255818552600384528285208054600181810183559187528587200189905588865260048552838620805491820181558652848620018054909116909117905585835260029091529020805460ff19169055610f908184611050565b505050565b6003602052815f5260405f208181548110610fae575f80fd5b905f5260205f20015f91509150505481565b60098181548110610c02575f80fd5b60076020525f908152604090208054610b749061138c565b5f8181526004602090815260409182902080548351818402810184019094528084526060939283018282801561104457602002820191905f5260205f20905b81546001600160a01b03168152600190910190602001808311611026575b50505050509050919050565b6001600160a01b0382165f908152600360205260408120905b8154811015611114578282828154811061108557611085611378565b905f5260205f2001540361110257815482906110a39060019061152b565b815481106110b3576110b3611378565b905f5260205f2001548282815481106110ce576110ce611378565b905f5260205f200181905550818054806110ea576110ea61153e565b600190038181905f5260205f20015f90559055611114565b8061110c816113d8565b915050611069565b50505050565b80356001600160a01b0381168114611130575f80fd5b919050565b5f60208284031215611145575f80fd5b61114e8261111a565b9392505050565b5f81518084525f5b818110156111795760208185018101518683018201520161115d565b505f602082860101526020601f19601f83011685010191505092915050565b5f602080830181845280855180835260408601915060408160051b87010192508387015f5b828110156111eb57603f198886030184526111d9858351611155565b945092850192908501906001016111bd565b5092979650505050505050565b5f60208284031215611208575f80fd5b5035919050565b5f8060408385031215611220575f80fd5b50508035926020909101359150565b634e487b7160e01b5f52604160045260245ffd5b5f8060408385031215611254575f80fd5b823567ffffffffffffffff8082111561126b575f80fd5b818501915085601f83011261127e575f80fd5b8135818111156112905761129061122f565b604051601f8201601f19908116603f011681019083821181831017156112b8576112b861122f565b816040528281528860208487010111156112d0575f80fd5b826020860160208301375f602093820184015298969091013596505050505050565b602081525f61114e6020830184611155565b5f8060408385031215611315575f80fd5b61131e8361111a565b946020939093013593505050565b602080825282518282018190525f9190848201906040850190845b8181101561136c5783516001600160a01b031683529284019291840191600101611347565b50909695505050505050565b634e487b7160e01b5f52603260045260245ffd5b600181811c908216806113a057607f821691505b6020821081036113be57634e487b7160e01b5f52602260045260245ffd5b50919050565b634e487b7160e01b5f52601160045260245ffd5b5f600182016113e9576113e96113c4565b5060010190565b8082018082111561092b5761092b6113c4565b601f821115610f90575f81815260208120601f850160051c810160208610156114295750805b601f850160051c820191505b8181101561144857828155600101611435565b505050505050565b815167ffffffffffffffff81111561146a5761146a61122f565b61147e81611478845461138c565b84611403565b602080601f8311600181146114b1575f841561149a5750858301515b5f19600386901b1c1916600185901b178555611448565b5f85815260208120601f198616915b828110156114df578886015182559484019460019091019084016114c0565b50858210156114fc57878501515f19600388901b60f8161c191681555b5050505050600190811b01905550565b5f8261152657634e487b7160e01b5f52601260045260245ffd5b500490565b8181038181111561092b5761092b6113c4565b634e487b7160e01b5f52603160045260245ffdfea26469706673582212209a38fc6527d31ec0876a8a5833f4c0d0da88f29165e87600177538313c9d199764736f6c63430008140033",
  "linkReferences": {},
  "deployedLinkReferences": {}
}