{
    "_format": "hh-sol-artifact-1",
    "contractName": "Test",
    "sourceName": "contracts/Test.sol",
    "abi": [
        {
            "inputs": [
                {
                    "internalType": "uint256",
                    "name": "_number",
                    "type": "uint256"
                },
                {
                    "internalType": "string",
                    "name": "_name",
                    "type": "string"
                }
            ],
            "name": "addData",
            "outputs": [],
            "stateMutability": "nonpayable",
            "type": "function"
        },
        {
            "inputs": [
                {
                    "internalType": "uint256",
                    "name": "",
                    "type": "uint256"
                }
            ],
            "name": "allNumbers",
            "outputs": [
                {
                    "internalType": "uint256",
                    "name": "",
                    "type": "uint256"
                }
            ],
            "stateMutability": "view",
            "type": "function"
        },
        {
            "inputs": [
                {
                    "internalType": "uint256",
                    "name": "",
                    "type": "uint256"
                }
            ],
            "name": "data",
            "outputs": [
                {
                    "internalType": "uint256",
                    "name": "_number",
                    "type": "uint256"
                },
                {
                    "internalType": "string",
                    "name": "_name",
                    "type": "string"
                }
            ],
            "stateMutability": "view",
            "type": "function"
        },
        {
            "inputs": [],
            "name": "retrieveAllData",
            "outputs": [
                {
                    "components": [
                        {
                            "internalType": "uint256",
                            "name": "_number",
                            "type": "uint256"
                        },
                        {
                            "internalType": "string",
                            "name": "_name",
                            "type": "string"
                        }
                    ],
                    "internalType": "struct Test.Details[]",
                    "name": "",
                    "type": "tuple[]"
                }
            ],
            "stateMutability": "view",
            "type": "function"
        }
    ],
    "bytecode": "0x608060405234801561001057600080fd5b50610701806100206000396000f3fe608060405234801561001057600080fd5b506004361061004c5760003560e01c806342413315146100515780638671fae514610066578063cadb943a1461008c578063f0ba8440146100a1575b600080fd5b61006461005f36600461039c565b6100c2565b005b610079610074366004610457565b610137565b6040519081526020015b60405180910390f35b610094610158565b60405161008391906104b6565b6100b46100af366004610457565b6102e1565b60405161008392919061052a565b60408051808201825283815260208082018481526000868152918290529290208151815591519091829160018201906100fb90826105ce565b50506001805480820182556000919091527fb10e2d527612073b26eecdfd717e6a320cf44b4afac2b0732d9fcbe2b7fa0cf60193909355505050565b6001818154811061014757600080fd5b600091825260209091200154905081565b60015460609060009067ffffffffffffffff81111561017957610179610386565b6040519080825280602002602001820160405280156101bf57816020015b6040805180820190915260008152606060208201528152602001906001900390816101975790505b50905060005b6001548110156102db576000600182815481106101e4576101e461068e565b90600052602060002001549050600080828152602001908152602001600020604051806040016040529081600082015481526020016001820180546102289061054b565b80601f01602080910402602001604051908101604052809291908181526020018280546102549061054b565b80156102a15780601f10610276576101008083540402835291602001916102a1565b820191906000526020600020905b81548152906001019060200180831161028457829003601f168201915b5050505050815250508383815181106102bc576102bc61068e565b60200260200101819052505080806102d3906106a4565b9150506101c5565b50919050565b600060208190529081526040902080546001820180549192916103039061054b565b80601f016020809104026020016040519081016040528092919081815260200182805461032f9061054b565b801561037c5780601f106103515761010080835404028352916020019161037c565b820191906000526020600020905b81548152906001019060200180831161035f57829003601f168201915b5050505050905082565b634e487b7160e01b600052604160045260246000fd5b600080604083850312156103af57600080fd5b82359150602083013567ffffffffffffffff808211156103ce57600080fd5b818501915085601f8301126103e257600080fd5b8135818111156103f4576103f4610386565b604051601f8201601f19908116603f0116810190838211818310171561041c5761041c610386565b8160405282815288602084870101111561043557600080fd5b8260208601602083013760006020848301015280955050505050509250929050565b60006020828403121561046957600080fd5b5035919050565b6000815180845260005b818110156104965760208185018101518683018201520161047a565b506000602082860101526020601f19601f83011685010191505092915050565b60006020808301818452808551808352604092508286019150828160051b87010184880160005b8381101561051c57888303603f1901855281518051845287015187840187905261050987850182610470565b95880195935050908601906001016104dd565b509098975050505050505050565b8281526040602082015260006105436040830184610470565b949350505050565b600181811c9082168061055f57607f821691505b6020821081036102db57634e487b7160e01b600052602260045260246000fd5b601f8211156105c957600081815260208120601f850160051c810160208610156105a65750805b601f850160051c820191505b818110156105c5578281556001016105b2565b5050505b505050565b815167ffffffffffffffff8111156105e8576105e8610386565b6105fc816105f6845461054b565b8461057f565b602080601f83116001811461063157600084156106195750858301515b600019600386901b1c1916600185901b1785556105c5565b600085815260208120601f198616915b8281101561066057888601518255948401946001909101908401610641565b508582101561067e5787850151600019600388901b60f8161c191681555b5050505050600190811b01905550565b634e487b7160e01b600052603260045260246000fd5b6000600182016106c457634e487b7160e01b600052601160045260246000fd5b506001019056fea26469706673582212206985a77f6ab34fb7b6e3328590d90a7a26e7cb9ae16ffacb844f6c0a65c9cb5c64736f6c63430008110033",
    "linkReferences": {},
    "deployedLinkReferences": {}
}